{
  "address": "0xffd7e2e10eeb0df5ce6579dc95b8d160b5c43aaa",
  "abi": [
    {
      "inputs": [
        {
          "internalType": "uint256",
          "name": "_chainId",
          "type": "uint256"
        },
        {
          "internalType": "address[]",
          "name": "_owners",
          "type": "address[]"
        },
        {
          "internalType": "uint256",
          "name": "_signaturesRequired",
          "type": "uint256"
        }
      ],
      "stateMutability": "nonpayable",
      "type": "constructor"
    },
    {
      "inputs": [],
      "name": "ECDSAInvalidSignature",
      "type": "error"
    },
    {
      "inputs": [
        {
          "internalType": "uint256",
          "name": "length",
          "type": "uint256"
        }
      ],
      "name": "ECDSAInvalidSignatureLength",
      "type": "error"
    },
    {
      "inputs": [
        {
          "internalType": "bytes32",
          "name": "s",
          "type": "bytes32"
        }
      ],
      "name": "ECDSAInvalidSignatureS",
      "type": "error"
    },
    {
      "anonymous": false,
      "inputs": [
        {
          "indexed": true,
          "internalType": "address",
          "name": "sender",
          "type": "address"
        },
        {
          "indexed": false,
          "internalType": "uint256",
          "name": "amount",
          "type": "uint256"
        },
        {
          "indexed": false,
          "internalType": "uint256",
          "name": "balance",
          "type": "uint256"
        }
      ],
      "name": "Deposit",
      "type": "event"
    },
    {
      "anonymous": false,
      "inputs": [
        {
          "indexed": true,
          "internalType": "address",
          "name": "owner",
          "type": "address"
        },
        {
          "indexed": false,
          "internalType": "address payable",
          "name": "to",
          "type": "address"
        },
        {
          "indexed": false,
          "internalType": "uint256",
          "name": "value",
          "type": "uint256"
        },
        {
          "indexed": false,
          "internalType": "bytes",
          "name": "data",
          "type": "bytes"
        },
        {
          "indexed": false,
          "internalType": "uint256",
          "name": "nonce",
          "type": "uint256"
        },
        {
          "indexed": false,
          "internalType": "bytes32",
          "name": "hash",
          "type": "bytes32"
        },
        {
          "indexed": false,
          "internalType": "bytes",
          "name": "result",
          "type": "bytes"
        }
      ],
      "name": "ExecuteTransaction",
      "type": "event"
    },
    {
      "anonymous": false,
      "inputs": [
        {
          "indexed": true,
          "internalType": "address",
          "name": "owner",
          "type": "address"
        },
        {
          "indexed": false,
          "internalType": "bool",
          "name": "added",
          "type": "bool"
        }
      ],
      "name": "Owner",
      "type": "event"
    },
    {
      "inputs": [
        {
          "internalType": "address",
          "name": "newSigner",
          "type": "address"
        },
        {
          "internalType": "uint256",
          "name": "newSignaturesRequired",
          "type": "uint256"
        }
      ],
      "name": "addSigner",
      "outputs": [],
      "stateMutability": "nonpayable",
      "type": "function"
    },
    {
      "inputs": [],
      "name": "chainId",
      "outputs": [
        {
          "internalType": "uint256",
          "name": "",
          "type": "uint256"
        }
      ],
      "stateMutability": "view",
      "type": "function"
    },
    {
      "inputs": [
        {
          "internalType": "address payable",
          "name": "to",
          "type": "address"
        },
        {
          "internalType": "uint256",
          "name": "value",
          "type": "uint256"
        },
        {
          "internalType": "bytes",
          "name": "data",
          "type": "bytes"
        },
        {
          "internalType": "bytes[]",
          "name": "signatures",
          "type": "bytes[]"
        }
      ],
      "name": "executeTransaction",
      "outputs": [
        {
          "internalType": "bytes",
          "name": "",
          "type": "bytes"
        }
      ],
      "stateMutability": "nonpayable",
      "type": "function"
    },
    {
      "inputs": [
        {
          "internalType": "uint256",
          "name": "_nonce",
          "type": "uint256"
        },
        {
          "internalType": "address",
          "name": "to",
          "type": "address"
        },
        {
          "internalType": "uint256",
          "name": "value",
          "type": "uint256"
        },
        {
          "internalType": "bytes",
          "name": "data",
          "type": "bytes"
        }
      ],
      "name": "getTransactionHash",
      "outputs": [
        {
          "internalType": "bytes32",
          "name": "",
          "type": "bytes32"
        }
      ],
      "stateMutability": "view",
      "type": "function"
    },
    {
      "inputs": [
        {
          "internalType": "address",
          "name": "",
          "type": "address"
        }
      ],
      "name": "isOwner",
      "outputs": [
        {
          "internalType": "bool",
          "name": "",
          "type": "bool"
        }
      ],
      "stateMutability": "view",
      "type": "function"
    },
    {
      "inputs": [],
      "name": "nonce",
      "outputs": [
        {
          "internalType": "uint256",
          "name": "",
          "type": "uint256"
        }
      ],
      "stateMutability": "view",
      "type": "function"
    },
    {
      "inputs": [
        {
          "internalType": "bytes32",
          "name": "_hash",
          "type": "bytes32"
        },
        {
          "internalType": "bytes",
          "name": "_signature",
          "type": "bytes"
        }
      ],
      "name": "recover",
      "outputs": [
        {
          "internalType": "address",
          "name": "",
          "type": "address"
        }
      ],
      "stateMutability": "pure",
      "type": "function"
    },
    {
      "inputs": [
        {
          "internalType": "address",
          "name": "oldSigner",
          "type": "address"
        },
        {
          "internalType": "uint256",
          "name": "newSignaturesRequired",
          "type": "uint256"
        }
      ],
      "name": "removeSigner",
      "outputs": [],
      "stateMutability": "nonpayable",
      "type": "function"
    },
    {
      "inputs": [],
      "name": "signaturesRequired",
      "outputs": [
        {
          "internalType": "uint256",
          "name": "",
          "type": "uint256"
        }
      ],
      "stateMutability": "view",
      "type": "function"
    },
    {
      "inputs": [
        {
          "internalType": "uint256",
          "name": "newSignaturesRequired",
          "type": "uint256"
        }
      ],
      "name": "updateSignaturesRequired",
      "outputs": [],
      "stateMutability": "nonpayable",
      "type": "function"
    },
    {
      "stateMutability": "payable",
      "type": "receive"
    }
  ],
  "transactionHash": "0xbe91c564f2188640d31969cdf5900981c074a3b04a9dd73e30510dbfc22bf0fb",
  "args": [
    11155111,
    [
      "0x7f6Ba565e35BB23C307992feBD841D5b2d8c8011"
    ],
    1
  ],
  "numDeployments": 2,
  "solcInputHash": "8ce1f386183bdc8411a05989597cbee6",
  "bytecode": "0x60806040523480156200001157600080fd5b50604051620013e1380380620013e183398101604081905262000034916200024d565b600081116200009e5760405162461bcd60e51b815260206004820152602b60248201527f636f6e7374727563746f723a206d757374206265206e6f6e2d7a65726f20736960448201526a19dcc81c995c5d5a5c995960aa1b60648201526084015b60405180910390fd5b600181905560005b82518110156200020e576000838281518110620000c757620000c762000336565b6020026020010151905060006001600160a01b0316816001600160a01b031603620001355760405162461bcd60e51b815260206004820152601960248201527f636f6e7374727563746f723a207a65726f206164647265737300000000000000604482015260640162000095565b6001600160a01b03811660009081526020819052604090205460ff1615620001a05760405162461bcd60e51b815260206004820152601d60248201527f636f6e7374727563746f723a206f776e6572206e6f7420756e69717565000000604482015260640162000095565b6001600160a01b03811660008181526020818152604091829020805460ff1916600190811790915591519182527ffe545f48304051c4029eb2da9927daa59da0414b4b084fdceaf2955b609b899e910160405180910390a2508062000205816200034c565b915050620000a6565b50505060035562000374565b634e487b7160e01b600052604160045260246000fd5b80516001600160a01b03811681146200024857600080fd5b919050565b6000806000606084860312156200026357600080fd5b8351602080860151919450906001600160401b03808211156200028557600080fd5b818701915087601f8301126200029a57600080fd5b815181811115620002af57620002af6200021a565b8060051b604051601f19603f83011681018181108582111715620002d757620002d76200021a565b60405291825284820192508381018501918a831115620002f657600080fd5b938501935b828510156200031f576200030f8562000230565b84529385019392850192620002fb565b809750505050505050604084015190509250925092565b634e487b7160e01b600052603260045260246000fd5b6000600182016200036d57634e487b7160e01b600052601160045260246000fd5b5060010190565b61105d80620003846000396000f3fe6080604052600436106100955760003560e01c806365af1bed1161005957806365af1bed146101c85780639a8a0592146101e8578063affed0e0146101fe578063ce757d2914610214578063d1fbffa01461022a57600080fd5b806319045a25146100db5780632f54bf6e146101185780633034a742146101585780633bad54261461017a578063545a4a3c1461019a57600080fd5b366100d6576040805134815247602082015233917f90890809c654f11d6e72a28fa60149770a0d11ec6c92319d6ceb2bb0a4ea1a15910160405180910390a2005b600080fd5b3480156100e757600080fd5b506100fb6100f6366004610c3c565b610257565b6040516001600160a01b0390911681526020015b60405180910390f35b34801561012457600080fd5b50610148610133366004610c9b565b60006020819052908152604090205460ff1681565b604051901515815260200161010f565b34801561016457600080fd5b50610178610173366004610cbf565b610299565b005b34801561018657600080fd5b50610178610195366004610cd8565b61033c565b3480156101a657600080fd5b506101ba6101b5366004610d04565b61048b565b60405190815260200161010f565b3480156101d457600080fd5b506101786101e3366004610cd8565b6104ca565b3480156101f457600080fd5b506101ba60035481565b34801561020a57600080fd5b506101ba60025481565b34801561022057600080fd5b506101ba60015481565b34801561023657600080fd5b5061024a610245366004610d67565b610668565b60405161010f9190610ebb565b7f19457468657265756d205369676e6564204d6573736167653a0a3332000000006000908152601c839052603c81206102909083610982565b90505b92915050565b3330146102c15760405162461bcd60e51b81526004016102b890610ece565b60405180910390fd5b600081116103375760405162461bcd60e51b815260206004820152603860248201527f7570646174655369676e61747572657352657175697265643a206d757374206260448201527f65206e6f6e2d7a65726f2073696773207265717569726564000000000000000060648201526084016102b8565b600155565b33301461035b5760405162461bcd60e51b81526004016102b890610ece565b6001600160a01b03821660009081526020819052604090205460ff166103c35760405162461bcd60e51b815260206004820152601760248201527f72656d6f76655369676e65723a206e6f74206f776e657200000000000000000060448201526064016102b8565b600081116104285760405162461bcd60e51b815260206004820152602c60248201527f72656d6f76655369676e65723a206d757374206265206e6f6e2d7a65726f207360448201526b1a59dcc81c995c5d5a5c995960a21b60648201526084016102b8565b6001600160a01b03821660008181526020818152604091829020805460ff19168155600185905554915160ff909216151582527ffe545f48304051c4029eb2da9927daa59da0414b4b084fdceaf2955b609b899e91015b60405180910390a25050565b600030600354868686866040516020016104aa96959493929190610ef0565b604051602081830303815290604052805190602001209050949350505050565b3330146104e95760405162461bcd60e51b81526004016102b890610ece565b6001600160a01b03821661053f5760405162461bcd60e51b815260206004820152601760248201527f6164645369676e65723a207a65726f206164647265737300000000000000000060448201526064016102b8565b6001600160a01b03821660009081526020819052604090205460ff16156105a85760405162461bcd60e51b815260206004820152601b60248201527f6164645369676e65723a206f776e6572206e6f7420756e69717565000000000060448201526064016102b8565b6000811161060a5760405162461bcd60e51b815260206004820152602960248201527f6164645369676e65723a206d757374206265206e6f6e2d7a65726f2073696773604482015268081c995c5d5a5c995960ba1b60648201526084016102b8565b6001600160a01b03821660008181526020818152604091829020805460ff19166001908117825585905554915160ff909216151582527ffe545f48304051c4029eb2da9927daa59da0414b4b084fdceaf2955b609b899e910161047f565b3360009081526020819052604090205460609060ff166106de5760405162461bcd60e51b815260206004820152602b60248201527f657865637574655472616e73616374696f6e3a206f6e6c79206f776e6572732060448201526a63616e206578656375746560a81b60648201526084016102b8565b60006106ee60025487878761048b565b60028054919250600061070083610f61565b919050555060008060005b85518110156108015760006107398588848151811061072c5761072c610f7a565b6020026020010151610257565b9050826001600160a01b0316816001600160a01b0316116107ba5760405162461bcd60e51b815260206004820152603560248201527f657865637574655472616e73616374696f6e3a206475706c6963617465206f7260448201527420756e6f726465726564207369676e61747572657360581b60648201526084016102b8565b6001600160a01b038116600090815260208190526040902054909250829060ff16156107ee57836107ea81610f61565b9450505b50806107f981610f61565b91505061070b565b5060015482101561086c5760405162461bcd60e51b815260206004820152602f60248201527f657865637574655472616e73616374696f6e3a206e6f7420656e6f756768207660448201526e616c6964207369676e61747572657360881b60648201526084016102b8565b600080896001600160a01b031689896040516108889190610f90565b60006040518083038185875af1925050503d80600081146108c5576040519150601f19603f3d011682016040523d82523d6000602084013e6108ca565b606091505b50915091508161091c5760405162461bcd60e51b815260206004820152601d60248201527f657865637574655472616e73616374696f6e3a207478206661696c656400000060448201526064016102b8565b336001600160a01b03167f9053e9ec105157fac8c9308d63e6b22be5f50fe915a3e567419b624311a02d748b8b8b60016002546109599190610fac565b8a8760405161096d96959493929190610fbf565b60405180910390a29998505050505050505050565b60008060008061099286866109ac565b9250925092506109a282826109f9565b5090949350505050565b600080600083516041036109e65760208401516040850151606086015160001a6109d888828585610ab6565b9550955095505050506109f2565b50508151600091506002905b9250925092565b6000826003811115610a0d57610a0d611011565b03610a16575050565b6001826003811115610a2a57610a2a611011565b03610a485760405163f645eedf60e01b815260040160405180910390fd5b6002826003811115610a5c57610a5c611011565b03610a7d5760405163fce698f760e01b8152600481018290526024016102b8565b6003826003811115610a9157610a91611011565b03610ab2576040516335e2f38360e21b8152600481018290526024016102b8565b5050565b600080807f7fffffffffffffffffffffffffffffff5d576e7357a4501ddfe92f46681b20a0841115610af15750600091506003905082610b7b565b604080516000808252602082018084528a905260ff891692820192909252606081018790526080810186905260019060a0016020604051602081039080840390855afa158015610b45573d6000803e3d6000fd5b5050604051601f1901519150506001600160a01b038116610b7157506000925060019150829050610b7b565b9250600091508190505b9450945094915050565b634e487b7160e01b600052604160045260246000fd5b604051601f8201601f1916810167ffffffffffffffff81118282101715610bc457610bc4610b85565b604052919050565b600082601f830112610bdd57600080fd5b813567ffffffffffffffff811115610bf757610bf7610b85565b610c0a601f8201601f1916602001610b9b565b818152846020838601011115610c1f57600080fd5b816020850160208301376000918101602001919091529392505050565b60008060408385031215610c4f57600080fd5b82359150602083013567ffffffffffffffff811115610c6d57600080fd5b610c7985828601610bcc565b9150509250929050565b6001600160a01b0381168114610c9857600080fd5b50565b600060208284031215610cad57600080fd5b8135610cb881610c83565b9392505050565b600060208284031215610cd157600080fd5b5035919050565b60008060408385031215610ceb57600080fd5b8235610cf681610c83565b946020939093013593505050565b60008060008060808587031215610d1a57600080fd5b843593506020850135610d2c81610c83565b925060408501359150606085013567ffffffffffffffff811115610d4f57600080fd5b610d5b87828801610bcc565b91505092959194509250565b60008060008060808587031215610d7d57600080fd5b8435610d8881610c83565b93506020858101359350604086013567ffffffffffffffff80821115610dad57600080fd5b610db989838a01610bcc565b94506060880135915080821115610dcf57600080fd5b818801915088601f830112610de357600080fd5b813581811115610df557610df5610b85565b8060051b610e04858201610b9b565b918252838101850191858101908c841115610e1e57600080fd5b86860192505b83831015610e5a57823585811115610e3c5760008081fd5b610e4a8e89838a0101610bcc565b8352509186019190860190610e24565b999c989b5096995050505050505050565b60005b83811015610e86578181015183820152602001610e6e565b50506000910152565b60008151808452610ea7816020860160208601610e6b565b601f01601f19169290920160200192915050565b6020815260006102906020830184610e8f565b6020808252600890820152672737ba1029b2b63360c11b604082015260600190565b60006bffffffffffffffffffffffff19808960601b168352876014840152866034840152808660601b166054840152508360688301528251610f39816088850160208701610e6b565b91909101608801979650505050505050565b634e487b7160e01b600052601160045260246000fd5b600060018201610f7357610f73610f4b565b5060010190565b634e487b7160e01b600052603260045260246000fd5b60008251610fa2818460208701610e6b565b9190910192915050565b8181038181111561029357610293610f4b565b60018060a01b038716815285602082015260c060408201526000610fe660c0830187610e8f565b85606084015284608084015282810360a08401526110048185610e8f565b9998505050505050505050565b634e487b7160e01b600052602160045260246000fdfea26469706673582212208cfbffe25ad5905b482605a76ece4aca441f87d305ab23a51cfdc8089401dbf664736f6c63430008140033",
  "devdoc": {
    "errors": {
      "ECDSAInvalidSignature()": [
        {
          "details": "The signature derives the `address(0)`."
        }
      ],
      "ECDSAInvalidSignatureLength(uint256)": [
        {
          "details": "The signature has an invalid length."
        }
      ],
      "ECDSAInvalidSignatureS(bytes32)": [
        {
          "details": "The signature has an S value that is in the upper half order."
        }
      ]
    },
    "kind": "dev",
    "methods": {},
    "version": 1
  },
  "userdoc": {
    "kind": "user",
    "methods": {},
    "version": 1
  },
  "storageLayout": {
    "storage": [
      {
        "astId": 1876,
        "contract": "contracts/MetaMultiSigWallet.sol:MetaMultiSigWallet",
        "label": "isOwner",
        "offset": 0,
        "slot": "0",
        "type": "t_mapping(t_address,t_bool)"
      },
      {
        "astId": 1878,
        "contract": "contracts/MetaMultiSigWallet.sol:MetaMultiSigWallet",
        "label": "signaturesRequired",
        "offset": 0,
        "slot": "1",
        "type": "t_uint256"
      },
      {
        "astId": 1880,
        "contract": "contracts/MetaMultiSigWallet.sol:MetaMultiSigWallet",
        "label": "nonce",
        "offset": 0,
        "slot": "2",
        "type": "t_uint256"
      },
      {
        "astId": 1882,
        "contract": "contracts/MetaMultiSigWallet.sol:MetaMultiSigWallet",
        "label": "chainId",
        "offset": 0,
        "slot": "3",
        "type": "t_uint256"
      }
    ],
    "types": {
      "t_address": {
        "encoding": "inplace",
        "label": "address",
        "numberOfBytes": "20"
      },
      "t_bool": {
        "encoding": "inplace",
        "label": "bool",
        "numberOfBytes": "1"
      },
      "t_mapping(t_address,t_bool)": {
        "encoding": "mapping",
        "key": "t_address",
        "label": "mapping(address => bool)",
        "numberOfBytes": "32",
        "value": "t_bool"
      },
      "t_uint256": {
        "encoding": "inplace",
        "label": "uint256",
        "numberOfBytes": "32"
      }
    }
  }
}